{
    "_format": "hh-sol-artifact-1",
    "contractName": "ChessChainGameplay",
    "sourceName": "contracts/ChessChainGameplay.sol",
    "abi": [
        {
            "inputs": [],
            "stateMutability": "nonpayable",
            "type": "constructor"
        },
        {
            "anonymous": false,
            "inputs": [
                {
                    "indexed": true,
                    "internalType": "address",
                    "name": "owner",
                    "type": "address"
                },
                {
                    "indexed": true,
                    "internalType": "address",
                    "name": "approved",
                    "type": "address"
                },
                {
                    "indexed": true,
                    "internalType": "uint256",
                    "name": "tokenId",
                    "type": "uint256"
                }
            ],
            "name": "Approval",
            "type": "event"
        },
        {
            "anonymous": false,
            "inputs": [
                {
                    "indexed": true,
                    "internalType": "address",
                    "name": "owner",
                    "type": "address"
                },
                {
                    "indexed": true,
                    "internalType": "address",
                    "name": "operator",
                    "type": "address"
                },
                {
                    "indexed": false,
                    "internalType": "bool",
                    "name": "approved",
                    "type": "bool"
                }
            ],
            "name": "ApprovalForAll",
            "type": "event"
        },
        {
            "anonymous": false,
            "inputs": [
                {
                    "indexed": false,
                    "internalType": "uint256",
                    "name": "_fromTokenId",
                    "type": "uint256"
                },
                {
                    "indexed": false,
                    "internalType": "uint256",
                    "name": "_toTokenId",
                    "type": "uint256"
                }
            ],
            "name": "BatchMetadataUpdate",
            "type": "event"
        },
        {
            "anonymous": false,
            "inputs": [
                {
                    "indexed": true,
                    "internalType": "string",
                    "name": "matchId",
                    "type": "string"
                },
                {
                    "indexed": true,
                    "internalType": "address",
                    "name": "matchCreator",
                    "type": "address"
                },
                {
                    "indexed": false,
                    "internalType": "uint256",
                    "name": "stakeAmount",
                    "type": "uint256"
                }
            ],
            "name": "MatchCreated",
            "type": "event"
        },
        {
            "anonymous": false,
            "inputs": [
                {
                    "indexed": true,
                    "internalType": "string",
                    "name": "matchId",
                    "type": "string"
                },
                {
                    "indexed": true,
                    "internalType": "address",
                    "name": "matchCreator",
                    "type": "address"
                },
                {
                    "indexed": true,
                    "internalType": "address",
                    "name": "matchJoiner",
                    "type": "address"
                },
                {
                    "indexed": false,
                    "internalType": "enum ChessChainGameplay.MatchResult",
                    "name": "gameResult",
                    "type": "uint8"
                },
                {
                    "indexed": false,
                    "internalType": "string",
                    "name": "matchDataURI",
                    "type": "string"
                }
            ],
            "name": "MatchEnded",
            "type": "event"
        },
        {
            "anonymous": false,
            "inputs": [
                {
                    "indexed": true,
                    "internalType": "string",
                    "name": "matchId",
                    "type": "string"
                },
                {
                    "indexed": true,
                    "internalType": "address",
                    "name": "mathJoiner",
                    "type": "address"
                }
            ],
            "name": "MatchStarted",
            "type": "event"
        },
        {
            "anonymous": false,
            "inputs": [
                {
                    "indexed": false,
                    "internalType": "uint256",
                    "name": "_tokenId",
                    "type": "uint256"
                }
            ],
            "name": "MetadataUpdate",
            "type": "event"
        },
        {
            "anonymous": false,
            "inputs": [
                {
                    "indexed": true,
                    "internalType": "address",
                    "name": "previousOwner",
                    "type": "address"
                },
                {
                    "indexed": true,
                    "internalType": "address",
                    "name": "newOwner",
                    "type": "address"
                }
            ],
            "name": "OwnershipTransferred",
            "type": "event"
        },
        {
            "anonymous": false,
            "inputs": [
                {
                    "indexed": true,
                    "internalType": "address",
                    "name": "from",
                    "type": "address"
                },
                {
                    "indexed": true,
                    "internalType": "address",
                    "name": "to",
                    "type": "address"
                },
                {
                    "indexed": true,
                    "internalType": "uint256",
                    "name": "tokenId",
                    "type": "uint256"
                }
            ],
            "name": "Transfer",
            "type": "event"
        },
        {
            "inputs": [],
            "name": "WinnerStakeAmountTimes",
            "outputs": [
                {
                    "internalType": "uint256",
                    "name": "",
                    "type": "uint256"
                }
            ],
            "stateMutability": "view",
            "type": "function"
        },
        {
            "inputs": [
                {
                    "internalType": "address",
                    "name": "to",
                    "type": "address"
                },
                {
                    "internalType": "uint256",
                    "name": "tokenId",
                    "type": "uint256"
                }
            ],
            "name": "approve",
            "outputs": [],
            "stateMutability": "nonpayable",
            "type": "function"
        },
        {
            "inputs": [
                {
                    "internalType": "address",
                    "name": "owner",
                    "type": "address"
                }
            ],
            "name": "balanceOf",
            "outputs": [
                {
                    "internalType": "uint256",
                    "name": "",
                    "type": "uint256"
                }
            ],
            "stateMutability": "view",
            "type": "function"
        },
        {
            "inputs": [
                {
                    "internalType": "string",
                    "name": "matchId",
                    "type": "string"
                },
                {
                    "internalType": "address",
                    "name": "matchCreator",
                    "type": "address"
                },
                {
                    "internalType": "uint256",
                    "name": "stakeAmount",
                    "type": "uint256"
                }
            ],
            "name": "createMatch",
            "outputs": [],
            "stateMutability": "payable",
            "type": "function"
        },
        {
            "inputs": [
                {
                    "internalType": "string",
                    "name": "matchId",
                    "type": "string"
                },
                {
                    "internalType": "string",
                    "name": "matchNftURI",
                    "type": "string"
                },
                {
                    "internalType": "string",
                    "name": "matchDataURI",
                    "type": "string"
                },
                {
                    "internalType": "enum ChessChainGameplay.MatchResult",
                    "name": "gameResult",
                    "type": "uint8"
                }
            ],
            "name": "endMatch",
            "outputs": [],
            "stateMutability": "payable",
            "type": "function"
        },
        {
            "inputs": [
                {
                    "internalType": "uint256",
                    "name": "tokenId",
                    "type": "uint256"
                }
            ],
            "name": "getApproved",
            "outputs": [
                {
                    "internalType": "address",
                    "name": "",
                    "type": "address"
                }
            ],
            "stateMutability": "view",
            "type": "function"
        },
        {
            "inputs": [
                {
                    "internalType": "address",
                    "name": "owner",
                    "type": "address"
                },
                {
                    "internalType": "address",
                    "name": "operator",
                    "type": "address"
                }
            ],
            "name": "isApprovedForAll",
            "outputs": [
                {
                    "internalType": "bool",
                    "name": "",
                    "type": "bool"
                }
            ],
            "stateMutability": "view",
            "type": "function"
        },
        {
            "inputs": [
                {
                    "internalType": "string",
                    "name": "matchId",
                    "type": "string"
                },
                {
                    "internalType": "address",
                    "name": "matchJoiner",
                    "type": "address"
                }
            ],
            "name": "joinMatch",
            "outputs": [],
            "stateMutability": "payable",
            "type": "function"
        },
        {
            "inputs": [
                {
                    "internalType": "string",
                    "name": "",
                    "type": "string"
                }
            ],
            "name": "matchOf",
            "outputs": [
                {
                    "internalType": "enum ChessChainGameplay.MatchStatus",
                    "name": "matchStatus",
                    "type": "uint8"
                },
                {
                    "internalType": "string",
                    "name": "matchId",
                    "type": "string"
                },
                {
                    "internalType": "address",
                    "name": "matchCreator",
                    "type": "address"
                },
                {
                    "internalType": "address",
                    "name": "matchJoiner",
                    "type": "address"
                },
                {
                    "internalType": "uint256",
                    "name": "stakeAmount",
                    "type": "uint256"
                },
                {
                    "internalType": "enum ChessChainGameplay.MatchResult",
                    "name": "gameResult",
                    "type": "uint8"
                },
                {
                    "internalType": "string",
                    "name": "matchDataURI",
                    "type": "string"
                },
                {
                    "internalType": "uint256",
                    "name": "nftId",
                    "type": "uint256"
                },
                {
                    "internalType": "uint256",
                    "name": "createTime",
                    "type": "uint256"
                },
                {
                    "internalType": "uint256",
                    "name": "startTime",
                    "type": "uint256"
                },
                {
                    "internalType": "uint256",
                    "name": "endTime",
                    "type": "uint256"
                }
            ],
            "stateMutability": "view",
            "type": "function"
        },
        {
            "inputs": [],
            "name": "name",
            "outputs": [
                {
                    "internalType": "string",
                    "name": "",
                    "type": "string"
                }
            ],
            "stateMutability": "view",
            "type": "function"
        },
        {
            "inputs": [],
            "name": "owner",
            "outputs": [
                {
                    "internalType": "address",
                    "name": "",
                    "type": "address"
                }
            ],
            "stateMutability": "view",
            "type": "function"
        },
        {
            "inputs": [
                {
                    "internalType": "uint256",
                    "name": "tokenId",
                    "type": "uint256"
                }
            ],
            "name": "ownerOf",
            "outputs": [
                {
                    "internalType": "address",
                    "name": "",
                    "type": "address"
                }
            ],
            "stateMutability": "view",
            "type": "function"
        },
        {
            "inputs": [],
            "name": "renounceOwnership",
            "outputs": [],
            "stateMutability": "nonpayable",
            "type": "function"
        },
        {
            "inputs": [
                {
                    "internalType": "address",
                    "name": "from",
                    "type": "address"
                },
                {
                    "internalType": "address",
                    "name": "to",
                    "type": "address"
                },
                {
                    "internalType": "uint256",
                    "name": "tokenId",
                    "type": "uint256"
                }
            ],
            "name": "safeTransferFrom",
            "outputs": [],
            "stateMutability": "nonpayable",
            "type": "function"
        },
        {
            "inputs": [
                {
                    "internalType": "address",
                    "name": "from",
                    "type": "address"
                },
                {
                    "internalType": "address",
                    "name": "to",
                    "type": "address"
                },
                {
                    "internalType": "uint256",
                    "name": "tokenId",
                    "type": "uint256"
                },
                {
                    "internalType": "bytes",
                    "name": "data",
                    "type": "bytes"
                }
            ],
            "name": "safeTransferFrom",
            "outputs": [],
            "stateMutability": "nonpayable",
            "type": "function"
        },
        {
            "inputs": [
                {
                    "internalType": "address",
                    "name": "operator",
                    "type": "address"
                },
                {
                    "internalType": "bool",
                    "name": "approved",
                    "type": "bool"
                }
            ],
            "name": "setApprovalForAll",
            "outputs": [],
            "stateMutability": "nonpayable",
            "type": "function"
        },
        {
            "inputs": [
                {
                    "internalType": "bytes4",
                    "name": "interfaceId",
                    "type": "bytes4"
                }
            ],
            "name": "supportsInterface",
            "outputs": [
                {
                    "internalType": "bool",
                    "name": "",
                    "type": "bool"
                }
            ],
            "stateMutability": "view",
            "type": "function"
        },
        {
            "inputs": [],
            "name": "symbol",
            "outputs": [
                {
                    "internalType": "string",
                    "name": "",
                    "type": "string"
                }
            ],
            "stateMutability": "view",
            "type": "function"
        },
        {
            "inputs": [
                {
                    "internalType": "uint256",
                    "name": "index",
                    "type": "uint256"
                }
            ],
            "name": "tokenByIndex",
            "outputs": [
                {
                    "internalType": "uint256",
                    "name": "",
                    "type": "uint256"
                }
            ],
            "stateMutability": "view",
            "type": "function"
        },
        {
            "inputs": [
                {
                    "internalType": "address",
                    "name": "owner",
                    "type": "address"
                },
                {
                    "internalType": "uint256",
                    "name": "index",
                    "type": "uint256"
                }
            ],
            "name": "tokenOfOwnerByIndex",
            "outputs": [
                {
                    "internalType": "uint256",
                    "name": "",
                    "type": "uint256"
                }
            ],
            "stateMutability": "view",
            "type": "function"
        },
        {
            "inputs": [
                {
                    "internalType": "uint256",
                    "name": "tokenId",
                    "type": "uint256"
                }
            ],
            "name": "tokenURI",
            "outputs": [
                {
                    "internalType": "string",
                    "name": "",
                    "type": "string"
                }
            ],
            "stateMutability": "view",
            "type": "function"
        },
        {
            "inputs": [],
            "name": "totalSupply",
            "outputs": [
                {
                    "internalType": "uint256",
                    "name": "",
                    "type": "uint256"
                }
            ],
            "stateMutability": "view",
            "type": "function"
        },
        {
            "inputs": [
                {
                    "internalType": "address",
                    "name": "from",
                    "type": "address"
                },
                {
                    "internalType": "address",
                    "name": "to",
                    "type": "address"
                },
                {
                    "internalType": "uint256",
                    "name": "tokenId",
                    "type": "uint256"
                }
            ],
            "name": "transferFrom",
            "outputs": [],
            "stateMutability": "nonpayable",
            "type": "function"
        },
        {
            "inputs": [
                {
                    "internalType": "address",
                    "name": "newOwner",
                    "type": "address"
                }
            ],
            "name": "transferOwnership",
            "outputs": [],
            "stateMutability": "nonpayable",
            "type": "function"
        }
    ],
    "bytecode": "0x60806040526002600e553480156200001657600080fd5b506040518060400160405280600d81526020017f4368657373436861696e4e4654000000000000000000000000000000000000008152506040518060400160405280600381526020017f43434e0000000000000000000000000000000000000000000000000000000000815250620000a362000097620000d760201b60201c565b620000df60201b60201c565b8160019081620000b491906200041d565b508060029081620000c691906200041d565b505050600160078190555062000504565b600033905090565b60008060009054906101000a900473ffffffffffffffffffffffffffffffffffffffff169050816000806101000a81548173ffffffffffffffffffffffffffffffffffffffff021916908373ffffffffffffffffffffffffffffffffffffffff1602179055508173ffffffffffffffffffffffffffffffffffffffff168173ffffffffffffffffffffffffffffffffffffffff167f8be0079c531659141344cd1fd0a4f28419497f9722a3daafe3b4186f6b6457e060405160405180910390a35050565b600081519050919050565b7f4e487b7100000000000000000000000000000000000000000000000000000000600052604160045260246000fd5b7f4e487b7100000000000000000000000000000000000000000000000000000000600052602260045260246000fd5b600060028204905060018216806200022557607f821691505b6020821081036200023b576200023a620001dd565b5b50919050565b60008190508160005260206000209050919050565b60006020601f8301049050919050565b600082821b905092915050565b600060088302620002a57fffffffffffffffffffffffffffffffffffffffffffffffffffffffffffffffff8262000266565b620002b1868362000266565b95508019841693508086168417925050509392505050565b6000819050919050565b6000819050919050565b6000620002fe620002f8620002f284620002c9565b620002d3565b620002c9565b9050919050565b6000819050919050565b6200031a83620002dd565b62000332620003298262000305565b84845462000273565b825550505050565b600090565b620003496200033a565b620003568184846200030f565b505050565b5b818110156200037e57620003726000826200033f565b6001810190506200035c565b5050565b601f821115620003cd57620003978162000241565b620003a28462000256565b81016020851015620003b2578190505b620003ca620003c18562000256565b8301826200035b565b50505b505050565b600082821c905092915050565b6000620003f260001984600802620003d2565b1980831691505092915050565b60006200040d8383620003df565b9150826002028217905092915050565b6200042882620001a3565b67ffffffffffffffff811115620004445762000443620001ae565b5b6200045082546200020c565b6200045d82828562000382565b600060209050601f83116001811462000495576000841562000480578287015190505b6200048c8582620003ff565b865550620004fc565b601f198416620004a58662000241565b60005b82811015620004cf57848901518255600182019150602085019450602081019050620004a8565b86831015620004ef5784890151620004eb601f891682620003df565b8355505b6001600288020188555050505b505050505050565b614def80620005146000396000f3fe60806040526004361061014b5760003560e01c80636352211e116100b6578063a22cb4651161006f578063a22cb465146104a6578063b88d4fde146104cf578063c8175c6b146104f8578063c87b56dd14610514578063e985e9c514610551578063f2fde38b1461058e5761014b565b80636352211e1461039457806370a08231146103d1578063715018a61461040e5780638bba2200146104255780638da5cb5b1461045057806395d89b411461047b5761014b565b80632f745c59116101085780632f745c59146102725780633c3a690d146102af57806342842e0e146102cb57806343f6f092146102f45780634f6ccce71461033b5780635deca751146103785761014b565b806301ffc9a71461015057806306fdde031461018d578063081812fc146101b8578063095ea7b3146101f557806318160ddd1461021e57806323b872dd14610249575b600080fd5b34801561015c57600080fd5b506101776004803603810190610172919061325c565b6105b7565b60405161018491906132a4565b60405180910390f35b34801561019957600080fd5b506101a26105c9565b6040516101af919061334f565b60405180910390f35b3480156101c457600080fd5b506101df60048036038101906101da91906133a7565b61065b565b6040516101ec9190613415565b60405180910390f35b34801561020157600080fd5b5061021c6004803603810190610217919061345c565b6106a1565b005b34801561022a57600080fd5b506102336107b8565b60405161024091906134ab565b60405180910390f35b34801561025557600080fd5b50610270600480360381019061026b91906134c6565b6107c5565b005b34801561027e57600080fd5b506102996004803603810190610294919061345c565b610825565b6040516102a691906134ab565b60405180910390f35b6102c960048036038101906102c49190613673565b6108ca565b005b3480156102d757600080fd5b506102f260048036038101906102ed91906134c6565b610f07565b005b34801561030057600080fd5b5061031b6004803603810190610316919061372e565b610f27565b6040516103329b9a99989796959493929190613836565b60405180910390f35b34801561034757600080fd5b50610362600480360381019061035d91906133a7565b611101565b60405161036f91906134ab565b60405180910390f35b610392600480360381019061038d91906138ef565b611172565b005b3480156103a057600080fd5b506103bb60048036038101906103b691906133a7565b6113d8565b6040516103c89190613415565b60405180910390f35b3480156103dd57600080fd5b506103f860048036038101906103f3919061395e565b61145e565b60405161040591906134ab565b60405180910390f35b34801561041a57600080fd5b50610423611515565b005b34801561043157600080fd5b5061043a611529565b60405161044791906134ab565b60405180910390f35b34801561045c57600080fd5b5061046561152f565b6040516104729190613415565b60405180910390f35b34801561048757600080fd5b50610490611558565b60405161049d919061334f565b60405180910390f35b3480156104b257600080fd5b506104cd60048036038101906104c891906139b7565b6115ea565b005b3480156104db57600080fd5b506104f660048036038101906104f19190613a98565b611600565b005b610512600480360381019061050d9190613b1b565b611662565b005b34801561052057600080fd5b5061053b600480360381019061053691906133a7565b611888565b604051610548919061334f565b60405180910390f35b34801561055d57600080fd5b5061057860048036038101906105739190613b77565b61189a565b60405161058591906132a4565b60405180910390f35b34801561059a57600080fd5b506105b560048036038101906105b0919061395e565b61192e565b005b60006105c2826119b1565b9050919050565b6060600180546105d890613be6565b80601f016020809104026020016040519081016040528092919081815260200182805461060490613be6565b80156106515780601f1061062657610100808354040283529160200191610651565b820191906000526020600020905b81548152906001019060200180831161063457829003601f168201915b5050505050905090565b600061066682611a2b565b6005600083815260200190815260200160002060009054906101000a900473ffffffffffffffffffffffffffffffffffffffff169050919050565b60006106ac826113d8565b90508073ffffffffffffffffffffffffffffffffffffffff168373ffffffffffffffffffffffffffffffffffffffff160361071c576040517f08c379a000000000000000000000000000000000000000000000000000000000815260040161071390613c89565b60405180910390fd5b8073ffffffffffffffffffffffffffffffffffffffff1661073b611a76565b73ffffffffffffffffffffffffffffffffffffffff16148061076a575061076981610764611a76565b61189a565b5b6107a9576040517f08c379a00000000000000000000000000000000000000000000000000000000081526004016107a090613d1b565b60405180910390fd5b6107b38383611a7e565b505050565b6000600b80549050905090565b6107d66107d0611a76565b82611b37565b610815576040517f08c379a000000000000000000000000000000000000000000000000000000000815260040161080c90613dad565b60405180910390fd5b610820838383611bcc565b505050565b60006108308361145e565b8210610871576040517f08c379a000000000000000000000000000000000000000000000000000000000815260040161086890613e3f565b60405180910390fd5b600960008473ffffffffffffffffffffffffffffffffffffffff1673ffffffffffffffffffffffffffffffffffffffff168152602001908152602001600020600083815260200190815260200160002054905092915050565b600260038111156108de576108dd613777565b5b600d856040516108ee9190613e9b565b908152602001604051809103902060000160009054906101000a900460ff16600381111561091f5761091e613777565b5b1461095f576040517f08c379a000000000000000000000000000000000000000000000000000000000815260040161095690613f24565b60405180910390fd5b600d8460405161096f9190613e9b565b908152602001604051809103902060020160009054906101000a900473ffffffffffffffffffffffffffffffffffffffff1673ffffffffffffffffffffffffffffffffffffffff163373ffffffffffffffffffffffffffffffffffffffff161480610a465750600d846040516109e59190613e9b565b908152602001604051809103902060030160009054906101000a900473ffffffffffffffffffffffffffffffffffffffff1673ffffffffffffffffffffffffffffffffffffffff163373ffffffffffffffffffffffffffffffffffffffff16145b610a85576040517f08c379a0000000000000000000000000000000000000000000000000000000008152600401610a7c90613fb6565b60405180910390fd5b6003600d85604051610a979190613e9b565b908152602001604051809103902060000160006101000a81548160ff02191690836003811115610aca57610ac9613777565b5b021790555080600d85604051610ae09190613e9b565b908152602001604051809103902060050160006101000a81548160ff02191690836002811115610b1357610b12613777565b5b021790555081600d85604051610b299190613e9b565b90815260200160405180910390206006019081610b469190614182565b5042600d85604051610b589190613e9b565b9081526020016040518091039020600a01819055506000600280811115610b8257610b81613777565b5b826002811115610b9557610b94613777565b5b03610c7757610c06600d86604051610bad9190613e9b565b908152602001604051809103902060020160009054906101000a900473ffffffffffffffffffffffffffffffffffffffff16600d87604051610bef9190613e9b565b908152602001604051809103902060040154611ec5565b610c72600d86604051610c199190613e9b565b908152602001604051809103902060030160009054906101000a900473ffffffffffffffffffffffffffffffffffffffff16600d87604051610c5b9190613e9b565b908152602001604051809103902060040154611ec5565b610d5f565b60006002811115610c8b57610c8a613777565b5b826002811115610c9e57610c9d613777565b5b03610cec57600d85604051610cb39190613e9b565b908152602001604051809103902060020160009054906101000a900473ffffffffffffffffffffffffffffffffffffffff169050610d5e565b60016002811115610d0057610cff613777565b5b826002811115610d1357610d12613777565b5b03610d5d57600d85604051610d289190613e9b565b908152602001604051809103902060030160009054906101000a900473ffffffffffffffffffffffffffffffffffffffff1690505b5b5b600073ffffffffffffffffffffffffffffffffffffffff168173ffffffffffffffffffffffffffffffffffffffff1614610e01576000610d9f8286611f86565b905080600d87604051610db29190613e9b565b908152602001604051809103902060070181905550610dff82600d88604051610ddb9190613e9b565b908152602001604051809103902060040154600e54610dfa9190614283565b611ec5565b505b600d85604051610e119190613e9b565b908152602001604051809103902060030160009054906101000a900473ffffffffffffffffffffffffffffffffffffffff1673ffffffffffffffffffffffffffffffffffffffff16600d86604051610e699190613e9b565b908152602001604051809103902060020160009054906101000a900473ffffffffffffffffffffffffffffffffffffffff1673ffffffffffffffffffffffffffffffffffffffff1686604051610ebf9190613e9b565b60405180910390207faf90ab4ca13294a1c7cb51db93cd861b70bb7f76b3ca29fae1f132d4e66432738587604051610ef89291906142c5565b60405180910390a45050505050565b610f2283838360405180602001604052806000815250611600565b505050565b600d818051602081018201805184825260208301602085012081835280955050505050506000915090508060000160009054906101000a900460ff1690806001018054610f7390613be6565b80601f0160208091040260200160405190810160405280929190818152602001828054610f9f90613be6565b8015610fec5780601f10610fc157610100808354040283529160200191610fec565b820191906000526020600020905b815481529060010190602001808311610fcf57829003601f168201915b5050505050908060020160009054906101000a900473ffffffffffffffffffffffffffffffffffffffff16908060030160009054906101000a900473ffffffffffffffffffffffffffffffffffffffff16908060040154908060050160009054906101000a900460ff169080600601805461106690613be6565b80601f016020809104026020016040519081016040528092919081815260200182805461109290613be6565b80156110df5780601f106110b4576101008083540402835291602001916110df565b820191906000526020600020905b8154815290600101906020018083116110c257829003601f168201915b50505050509080600701549080600801549080600901549080600a015490508b565b600061110b6107b8565b821061114c576040517f08c379a000000000000000000000000000000000000000000000000000000000815260040161114390614367565b60405180910390fd5b600b82815481106111605761115f614387565b5b90600052602060002001549050919050565b6000600381111561118657611185613777565b5b600d846040516111969190613e9b565b908152602001604051809103902060000160009054906101000a900460ff1660038111156111c7576111c6613777565b5b14611207576040517f08c379a00000000000000000000000000000000000000000000000000000000081526004016111fe90614428565b60405180910390fd5b8034101561124a576040517f08c379a000000000000000000000000000000000000000000000000000000000815260040161124190614494565b60405180910390fd5b6001600d8460405161125c9190613e9b565b908152602001604051809103902060000160006101000a81548160ff0219169083600381111561128f5761128e613777565b5b021790555082600d846040516112a59190613e9b565b908152602001604051809103902060010190816112c29190614182565b5081600d846040516112d49190613e9b565b908152602001604051809103902060020160006101000a81548173ffffffffffffffffffffffffffffffffffffffff021916908373ffffffffffffffffffffffffffffffffffffffff16021790555080600d846040516113349190613e9b565b90815260200160405180910390206004018190555042600d8460405161135a9190613e9b565b9081526020016040518091039020600801819055508173ffffffffffffffffffffffffffffffffffffffff16836040516113949190613e9b565b60405180910390207f5467597a96a4ef53bccdf1e6e625595e100c0c2e7cf48bb39397b67e2fc91ebc836040516113cb91906134ab565b60405180910390a3505050565b6000806113e483611fc3565b9050600073ffffffffffffffffffffffffffffffffffffffff168173ffffffffffffffffffffffffffffffffffffffff1603611455576040517f08c379a000000000000000000000000000000000000000000000000000000000815260040161144c90614500565b60405180910390fd5b80915050919050565b60008073ffffffffffffffffffffffffffffffffffffffff168273ffffffffffffffffffffffffffffffffffffffff16036114ce576040517f08c379a00000000000000000000000000000000000000000000000000000000081526004016114c590614592565b60405180910390fd5b600460008373ffffffffffffffffffffffffffffffffffffffff1673ffffffffffffffffffffffffffffffffffffffff168152602001908152602001600020549050919050565b61151d612000565b611527600061207e565b565b600e5481565b60008060009054906101000a900473ffffffffffffffffffffffffffffffffffffffff16905090565b60606002805461156790613be6565b80601f016020809104026020016040519081016040528092919081815260200182805461159390613be6565b80156115e05780601f106115b5576101008083540402835291602001916115e0565b820191906000526020600020905b8154815290600101906020018083116115c357829003601f168201915b5050505050905090565b6115fc6115f5611a76565b8383612142565b5050565b61161161160b611a76565b83611b37565b611650576040517f08c379a000000000000000000000000000000000000000000000000000000000815260040161164790613dad565b60405180910390fd5b61165c848484846122ae565b50505050565b6001600381111561167657611675613777565b5b600d836040516116869190613e9b565b908152602001604051809103902060000160009054906101000a900460ff1660038111156116b7576116b6613777565b5b146116f7576040517f08c379a00000000000000000000000000000000000000000000000000000000081526004016116ee90613f24565b60405180910390fd5b600d826040516117079190613e9b565b90815260200160405180910390206004015434101561175b576040517f08c379a000000000000000000000000000000000000000000000000000000000815260040161175290614494565b60405180910390fd5b6002600d8360405161176d9190613e9b565b908152602001604051809103902060000160006101000a81548160ff021916908360038111156117a05761179f613777565b5b021790555080600d836040516117b69190613e9b565b908152602001604051809103902060030160006101000a81548173ffffffffffffffffffffffffffffffffffffffff021916908373ffffffffffffffffffffffffffffffffffffffff16021790555042600d836040516118169190613e9b565b9081526020016040518091039020600901819055508073ffffffffffffffffffffffffffffffffffffffff16826040516118509190613e9b565b60405180910390207f78c50c7585fab61f8b91196a049fafa00fba942de8996f59dcbddc7e00ccde0e60405160405180910390a35050565b60606118938261230a565b9050919050565b6000600660008473ffffffffffffffffffffffffffffffffffffffff1673ffffffffffffffffffffffffffffffffffffffff16815260200190815260200160002060008373ffffffffffffffffffffffffffffffffffffffff1673ffffffffffffffffffffffffffffffffffffffff16815260200190815260200160002060009054906101000a900460ff16905092915050565b611936612000565b600073ffffffffffffffffffffffffffffffffffffffff168173ffffffffffffffffffffffffffffffffffffffff16036119a5576040517f08c379a000000000000000000000000000000000000000000000000000000000815260040161199c90614624565b60405180910390fd5b6119ae8161207e565b50565b60007f780e9d63000000000000000000000000000000000000000000000000000000007bffffffffffffffffffffffffffffffffffffffffffffffffffffffff1916827bffffffffffffffffffffffffffffffffffffffffffffffffffffffff19161480611a245750611a238261241c565b5b9050919050565b611a348161247d565b611a73576040517f08c379a0000000000000000000000000000000000000000000000000000000008152600401611a6a90614500565b60405180910390fd5b50565b600033905090565b816005600083815260200190815260200160002060006101000a81548173ffffffffffffffffffffffffffffffffffffffff021916908373ffffffffffffffffffffffffffffffffffffffff160217905550808273ffffffffffffffffffffffffffffffffffffffff16611af1836113d8565b73ffffffffffffffffffffffffffffffffffffffff167f8c5be1e5ebec7d5bd14f71427d1e84f3dd0314c0f7b2291e5b200ac8c7c3b92560405160405180910390a45050565b600080611b43836113d8565b90508073ffffffffffffffffffffffffffffffffffffffff168473ffffffffffffffffffffffffffffffffffffffff161480611b855750611b84818561189a565b5b80611bc357508373ffffffffffffffffffffffffffffffffffffffff16611bab8461065b565b73ffffffffffffffffffffffffffffffffffffffff16145b91505092915050565b8273ffffffffffffffffffffffffffffffffffffffff16611bec826113d8565b73ffffffffffffffffffffffffffffffffffffffff1614611c42576040517f08c379a0000000000000000000000000000000000000000000000000000000008152600401611c39906146b6565b60405180910390fd5b600073ffffffffffffffffffffffffffffffffffffffff168273ffffffffffffffffffffffffffffffffffffffff1603611cb1576040517f08c379a0000000000000000000000000000000000000000000000000000000008152600401611ca890614748565b60405180910390fd5b611cbe83838360016124be565b8273ffffffffffffffffffffffffffffffffffffffff16611cde826113d8565b73ffffffffffffffffffffffffffffffffffffffff1614611d34576040517f08c379a0000000000000000000000000000000000000000000000000000000008152600401611d2b906146b6565b60405180910390fd5b6005600082815260200190815260200160002060006101000a81549073ffffffffffffffffffffffffffffffffffffffff02191690556001600460008573ffffffffffffffffffffffffffffffffffffffff1673ffffffffffffffffffffffffffffffffffffffff168152602001908152602001600020600082825403925050819055506001600460008473ffffffffffffffffffffffffffffffffffffffff1673ffffffffffffffffffffffffffffffffffffffff16815260200190815260200160002060008282540192505081905550816003600083815260200190815260200160002060006101000a81548173ffffffffffffffffffffffffffffffffffffffff021916908373ffffffffffffffffffffffffffffffffffffffff160217905550808273ffffffffffffffffffffffffffffffffffffffff168473ffffffffffffffffffffffffffffffffffffffff167fddf252ad1be2c89b69c2b068fc378daa952ba7f163c4a11628f55a4df523b3ef60405160405180910390a4611ec083838360016124d0565b505050565b611ecd6124d6565b60008273ffffffffffffffffffffffffffffffffffffffff1682604051611ef390614799565b60006040518083038185875af1925050503d8060008114611f30576040519150601f19603f3d011682016040523d82523d6000602084013e611f35565b606091505b5050905080611f79576040517f08c379a0000000000000000000000000000000000000000000000000000000008152600401611f70906147fa565b60405180910390fd5b50611f82612525565b5050565b600080611f916107b8565b90506000600182611fa2919061481a565b9050611fae858261252f565b611fb8818561274c565b809250505092915050565b60006003600083815260200190815260200160002060009054906101000a900473ffffffffffffffffffffffffffffffffffffffff169050919050565b612008611a76565b73ffffffffffffffffffffffffffffffffffffffff1661202661152f565b73ffffffffffffffffffffffffffffffffffffffff161461207c576040517f08c379a00000000000000000000000000000000000000000000000000000000081526004016120739061489a565b60405180910390fd5b565b60008060009054906101000a900473ffffffffffffffffffffffffffffffffffffffff169050816000806101000a81548173ffffffffffffffffffffffffffffffffffffffff021916908373ffffffffffffffffffffffffffffffffffffffff1602179055508173ffffffffffffffffffffffffffffffffffffffff168173ffffffffffffffffffffffffffffffffffffffff167f8be0079c531659141344cd1fd0a4f28419497f9722a3daafe3b4186f6b6457e060405160405180910390a35050565b8173ffffffffffffffffffffffffffffffffffffffff168373ffffffffffffffffffffffffffffffffffffffff16036121b0576040517f08c379a00000000000000000000000000000000000000000000000000000000081526004016121a790614906565b60405180910390fd5b80600660008573ffffffffffffffffffffffffffffffffffffffff1673ffffffffffffffffffffffffffffffffffffffff16815260200190815260200160002060008473ffffffffffffffffffffffffffffffffffffffff1673ffffffffffffffffffffffffffffffffffffffff16815260200190815260200160002060006101000a81548160ff0219169083151502179055508173ffffffffffffffffffffffffffffffffffffffff168373ffffffffffffffffffffffffffffffffffffffff167f17307eab39ab6107e8899845ad3d59bd9653f200f220920489ca2b5937696c31836040516122a191906132a4565b60405180910390a3505050565b6122b9848484611bcc565b6122c5848484846127f0565b612304576040517f08c379a00000000000000000000000000000000000000000000000000000000081526004016122fb90614998565b60405180910390fd5b50505050565b606061231582611a2b565b600060086000848152602001908152602001600020805461233590613be6565b80601f016020809104026020016040519081016040528092919081815260200182805461236190613be6565b80156123ae5780601f10612383576101008083540402835291602001916123ae565b820191906000526020600020905b81548152906001019060200180831161239157829003601f168201915b5050505050905060006123bf612977565b905060008151036123d4578192505050612417565b6000825111156124095780826040516020016123f19291906149b8565b60405160208183030381529060405292505050612417565b6124128461298e565b925050505b919050565b6000634906490660e01b7bffffffffffffffffffffffffffffffffffffffffffffffffffffffff1916827bffffffffffffffffffffffffffffffffffffffffffffffffffffffff191614806124765750612475826129f6565b5b9050919050565b60008073ffffffffffffffffffffffffffffffffffffffff1661249f83611fc3565b73ffffffffffffffffffffffffffffffffffffffff1614159050919050565b6124ca84848484612ad8565b50505050565b50505050565b60026007540361251b576040517f08c379a000000000000000000000000000000000000000000000000000000000815260040161251290614a28565b60405180910390fd5b6002600781905550565b6001600781905550565b600073ffffffffffffffffffffffffffffffffffffffff168273ffffffffffffffffffffffffffffffffffffffff160361259e576040517f08c379a000000000000000000000000000000000000000000000000000000000815260040161259590614a94565b60405180910390fd5b6125a78161247d565b156125e7576040517f08c379a00000000000000000000000000000000000000000000000000000000081526004016125de90614b00565b60405180910390fd5b6125f56000838360016124be565b6125fe8161247d565b1561263e576040517f08c379a000000000000000000000000000000000000000000000000000000000815260040161263590614b00565b60405180910390fd5b6001600460008473ffffffffffffffffffffffffffffffffffffffff1673ffffffffffffffffffffffffffffffffffffffff16815260200190815260200160002060008282540192505081905550816003600083815260200190815260200160002060006101000a81548173ffffffffffffffffffffffffffffffffffffffff021916908373ffffffffffffffffffffffffffffffffffffffff160217905550808273ffffffffffffffffffffffffffffffffffffffff16600073ffffffffffffffffffffffffffffffffffffffff167fddf252ad1be2c89b69c2b068fc378daa952ba7f163c4a11628f55a4df523b3ef60405160405180910390a46127486000838360016124d0565b5050565b6127558261247d565b612794576040517f08c379a000000000000000000000000000000000000000000000000000000000815260040161278b90614b92565b60405180910390fd5b806008600084815260200190815260200160002090816127b49190614182565b507ff8e1a15aba9398e019f0b49df1a4fde98ee17ae345cb5f6b5e2c27f5033e8ce7826040516127e491906134ab565b60405180910390a15050565b60006128118473ffffffffffffffffffffffffffffffffffffffff16612c36565b1561296a578373ffffffffffffffffffffffffffffffffffffffff1663150b7a0261283a611a76565b8786866040518563ffffffff1660e01b815260040161285c9493929190614c07565b6020604051808303816000875af192505050801561289857506040513d601f19601f820116820180604052508101906128959190614c68565b60015b61291a573d80600081146128c8576040519150601f19603f3d011682016040523d82523d6000602084013e6128cd565b606091505b506000815103612912576040517f08c379a000000000000000000000000000000000000000000000000000000000815260040161290990614998565b60405180910390fd5b805181602001fd5b63150b7a0260e01b7bffffffffffffffffffffffffffffffffffffffffffffffffffffffff1916817bffffffffffffffffffffffffffffffffffffffffffffffffffffffff19161491505061296f565b600190505b949350505050565b606060405180602001604052806000815250905090565b606061299982611a2b565b60006129a3612977565b905060008151116129c357604051806020016040528060008152506129ee565b806129cd84612c59565b6040516020016129de9291906149b8565b6040516020818303038152906040525b915050919050565b60007f80ac58cd000000000000000000000000000000000000000000000000000000007bffffffffffffffffffffffffffffffffffffffffffffffffffffffff1916827bffffffffffffffffffffffffffffffffffffffffffffffffffffffff19161480612ac157507f5b5e139f000000000000000000000000000000000000000000000000000000007bffffffffffffffffffffffffffffffffffffffffffffffffffffffff1916827bffffffffffffffffffffffffffffffffffffffffffffffffffffffff1916145b80612ad15750612ad082612d27565b5b9050919050565b612ae484848484612d91565b6001811115612b28576040517f08c379a0000000000000000000000000000000000000000000000000000000008152600401612b1f90614d07565b60405180910390fd5b6000829050600073ffffffffffffffffffffffffffffffffffffffff168573ffffffffffffffffffffffffffffffffffffffff1603612b6f57612b6a81612d97565b612bae565b8373ffffffffffffffffffffffffffffffffffffffff168573ffffffffffffffffffffffffffffffffffffffff1614612bad57612bac8582612de0565b5b5b600073ffffffffffffffffffffffffffffffffffffffff168473ffffffffffffffffffffffffffffffffffffffff1603612bf057612beb81612f4d565b612c2f565b8473ffffffffffffffffffffffffffffffffffffffff168473ffffffffffffffffffffffffffffffffffffffff1614612c2e57612c2d848261301e565b5b5b5050505050565b6000808273ffffffffffffffffffffffffffffffffffffffff163b119050919050565b606060006001612c688461309d565b01905060008167ffffffffffffffff811115612c8757612c86613523565b5b6040519080825280601f01601f191660200182016040528015612cb95781602001600182028036833780820191505090505b509050600082602001820190505b600115612d1c578080600190039150507f3031323334353637383961626364656600000000000000000000000000000000600a86061a8153600a8581612d1057612d0f614d27565b5b04945060008503612cc7575b819350505050919050565b60007f01ffc9a7000000000000000000000000000000000000000000000000000000007bffffffffffffffffffffffffffffffffffffffffffffffffffffffff1916827bffffffffffffffffffffffffffffffffffffffffffffffffffffffff1916149050919050565b50505050565b600b80549050600c600083815260200190815260200160002081905550600b81908060018154018082558091505060019003906000526020600020016000909190919091505550565b60006001612ded8461145e565b612df79190614d56565b90506000600a6000848152602001908152602001600020549050818114612edc576000600960008673ffffffffffffffffffffffffffffffffffffffff1673ffffffffffffffffffffffffffffffffffffffff168152602001908152602001600020600084815260200190815260200160002054905080600960008773ffffffffffffffffffffffffffffffffffffffff1673ffffffffffffffffffffffffffffffffffffffff16815260200190815260200160002060008481526020019081526020016000208190555081600a600083815260200190815260200160002081905550505b600a600084815260200190815260200160002060009055600960008573ffffffffffffffffffffffffffffffffffffffff1673ffffffffffffffffffffffffffffffffffffffff16815260200190815260200160002060008381526020019081526020016000206000905550505050565b60006001600b80549050612f619190614d56565b90506000600c60008481526020019081526020016000205490506000600b8381548110612f9157612f90614387565b5b9060005260206000200154905080600b8381548110612fb357612fb2614387565b5b906000526020600020018190555081600c600083815260200190815260200160002081905550600c600085815260200190815260200160002060009055600b80548061300257613001614d8a565b5b6001900381819060005260206000200160009055905550505050565b60006130298361145e565b905081600960008573ffffffffffffffffffffffffffffffffffffffff1673ffffffffffffffffffffffffffffffffffffffff16815260200190815260200160002060008381526020019081526020016000208190555080600a600084815260200190815260200160002081905550505050565b600080600090507a184f03e93ff9f4daa797ed6e38ed64bf6a1f01000000000000000083106130fb577a184f03e93ff9f4daa797ed6e38ed64bf6a1f01000000000000000083816130f1576130f0614d27565b5b0492506040810190505b6d04ee2d6d415b85acef81000000008310613138576d04ee2d6d415b85acef8100000000838161312e5761312d614d27565b5b0492506020810190505b662386f26fc10000831061316757662386f26fc10000838161315d5761315c614d27565b5b0492506010810190505b6305f5e1008310613190576305f5e100838161318657613185614d27565b5b0492506008810190505b61271083106131b55761271083816131ab576131aa614d27565b5b0492506004810190505b606483106131d857606483816131ce576131cd614d27565b5b0492506002810190505b600a83106131e7576001810190505b80915050919050565b6000604051905090565b600080fd5b600080fd5b60007fffffffff0000000000000000000000000000000000000000000000000000000082169050919050565b61323981613204565b811461324457600080fd5b50565b60008135905061325681613230565b92915050565b600060208284031215613272576132716131fa565b5b600061328084828501613247565b91505092915050565b60008115159050919050565b61329e81613289565b82525050565b60006020820190506132b96000830184613295565b92915050565b600081519050919050565b600082825260208201905092915050565b60005b838110156132f95780820151818401526020810190506132de565b60008484015250505050565b6000601f19601f8301169050919050565b6000613321826132bf565b61332b81856132ca565b935061333b8185602086016132db565b61334481613305565b840191505092915050565b600060208201905081810360008301526133698184613316565b905092915050565b6000819050919050565b61338481613371565b811461338f57600080fd5b50565b6000813590506133a18161337b565b92915050565b6000602082840312156133bd576133bc6131fa565b5b60006133cb84828501613392565b91505092915050565b600073ffffffffffffffffffffffffffffffffffffffff82169050919050565b60006133ff826133d4565b9050919050565b61340f816133f4565b82525050565b600060208201905061342a6000830184613406565b92915050565b613439816133f4565b811461344457600080fd5b50565b60008135905061345681613430565b92915050565b60008060408385031215613473576134726131fa565b5b600061348185828601613447565b925050602061349285828601613392565b9150509250929050565b6134a581613371565b82525050565b60006020820190506134c0600083018461349c565b92915050565b6000806000606084860312156134df576134de6131fa565b5b60006134ed86828701613447565b93505060206134fe86828701613447565b925050604061350f86828701613392565b9150509250925092565b600080fd5b600080fd5b7f4e487b7100000000000000000000000000000000000000000000000000000000600052604160045260246000fd5b61355b82613305565b810181811067ffffffffffffffff8211171561357a57613579613523565b5b80604052505050565b600061358d6131f0565b90506135998282613552565b919050565b600067ffffffffffffffff8211156135b9576135b8613523565b5b6135c282613305565b9050602081019050919050565b82818337600083830152505050565b60006135f16135ec8461359e565b613583565b90508281526020810184848401111561360d5761360c61351e565b5b6136188482856135cf565b509392505050565b600082601f83011261363557613634613519565b5b81356136458482602086016135de565b91505092915050565b6003811061365b57600080fd5b50565b60008135905061366d8161364e565b92915050565b6000806000806080858703121561368d5761368c6131fa565b5b600085013567ffffffffffffffff8111156136ab576136aa6131ff565b5b6136b787828801613620565b945050602085013567ffffffffffffffff8111156136d8576136d76131ff565b5b6136e487828801613620565b935050604085013567ffffffffffffffff811115613705576137046131ff565b5b61371187828801613620565b92505060606137228782880161365e565b91505092959194509250565b600060208284031215613744576137436131fa565b5b600082013567ffffffffffffffff811115613762576137616131ff565b5b61376e84828501613620565b91505092915050565b7f4e487b7100000000000000000000000000000000000000000000000000000000600052602160045260246000fd5b600481106137b7576137b6613777565b5b50565b60008190506137c8826137a6565b919050565b60006137d8826137ba565b9050919050565b6137e8816137cd565b82525050565b600381106137ff576137fe613777565b5b50565b6000819050613810826137ee565b919050565b600061382082613802565b9050919050565b61383081613815565b82525050565b60006101608201905061384c600083018e6137df565b818103602083015261385e818d613316565b905061386d604083018c613406565b61387a606083018b613406565b613887608083018a61349c565b61389460a0830189613827565b81810360c08301526138a68188613316565b90506138b560e083018761349c565b6138c361010083018661349c565b6138d161012083018561349c565b6138df61014083018461349c565b9c9b505050505050505050505050565b600080600060608486031215613908576139076131fa565b5b600084013567ffffffffffffffff811115613926576139256131ff565b5b61393286828701613620565b935050602061394386828701613447565b925050604061395486828701613392565b9150509250925092565b600060208284031215613974576139736131fa565b5b600061398284828501613447565b91505092915050565b61399481613289565b811461399f57600080fd5b50565b6000813590506139b18161398b565b92915050565b600080604083850312156139ce576139cd6131fa565b5b60006139dc85828601613447565b92505060206139ed858286016139a2565b9150509250929050565b600067ffffffffffffffff821115613a1257613a11613523565b5b613a1b82613305565b9050602081019050919050565b6000613a3b613a36846139f7565b613583565b905082815260208101848484011115613a5757613a5661351e565b5b613a628482856135cf565b509392505050565b600082601f830112613a7f57613a7e613519565b5b8135613a8f848260208601613a28565b91505092915050565b60008060008060808587031215613ab257613ab16131fa565b5b6000613ac087828801613447565b9450506020613ad187828801613447565b9350506040613ae287828801613392565b925050606085013567ffffffffffffffff811115613b0357613b026131ff565b5b613b0f87828801613a6a565b91505092959194509250565b60008060408385031215613b3257613b316131fa565b5b600083013567ffffffffffffffff811115613b5057613b4f6131ff565b5b613b5c85828601613620565b9250506020613b6d85828601613447565b9150509250929050565b60008060408385031215613b8e57613b8d6131fa565b5b6000613b9c85828601613447565b9250506020613bad85828601613447565b9150509250929050565b7f4e487b7100000000000000000000000000000000000000000000000000000000600052602260045260246000fd5b60006002820490506001821680613bfe57607f821691505b602082108103613c1157613c10613bb7565b5b50919050565b7f4552433732313a20617070726f76616c20746f2063757272656e74206f776e6560008201527f7200000000000000000000000000000000000000000000000000000000000000602082015250565b6000613c736021836132ca565b9150613c7e82613c17565b604082019050919050565b60006020820190508181036000830152613ca281613c66565b9050919050565b7f4552433732313a20617070726f76652063616c6c6572206973206e6f7420746f60008201527f6b656e206f776e6572206f7220617070726f76656420666f7220616c6c000000602082015250565b6000613d05603d836132ca565b9150613d1082613ca9565b604082019050919050565b60006020820190508181036000830152613d3481613cf8565b9050919050565b7f4552433732313a2063616c6c6572206973206e6f7420746f6b656e206f776e6560008201527f72206f7220617070726f76656400000000000000000000000000000000000000602082015250565b6000613d97602d836132ca565b9150613da282613d3b565b604082019050919050565b60006020820190508181036000830152613dc681613d8a565b9050919050565b7f455243373231456e756d657261626c653a206f776e657220696e646578206f7560008201527f74206f6620626f756e6473000000000000000000000000000000000000000000602082015250565b6000613e29602b836132ca565b9150613e3482613dcd565b604082019050919050565b60006020820190508181036000830152613e5881613e1c565b9050919050565b600081905092915050565b6000613e75826132bf565b613e7f8185613e5f565b9350613e8f8185602086016132db565b80840191505092915050565b6000613ea78284613e6a565b915081905092915050565b7f496e7661696c6964207265717565737420666f722074686973206d617463684960008201527f6400000000000000000000000000000000000000000000000000000000000000602082015250565b6000613f0e6021836132ca565b9150613f1982613eb2565b604082019050919050565b60006020820190508181036000830152613f3d81613f01565b9050919050565b7f6f6e6c79206d617463682063726561746f72207c7c206a6f696e6572207c7c2060008201527f61646d696e000000000000000000000000000000000000000000000000000000602082015250565b6000613fa06025836132ca565b9150613fab82613f44565b604082019050919050565b60006020820190508181036000830152613fcf81613f93565b9050919050565b60008190508160005260206000209050919050565b60006020601f8301049050919050565b600082821b905092915050565b6000600883026140387fffffffffffffffffffffffffffffffffffffffffffffffffffffffffffffffff82613ffb565b6140428683613ffb565b95508019841693508086168417925050509392505050565b6000819050919050565b600061407f61407a61407584613371565b61405a565b613371565b9050919050565b6000819050919050565b61409983614064565b6140ad6140a582614086565b848454614008565b825550505050565b600090565b6140c26140b5565b6140cd818484614090565b505050565b5b818110156140f1576140e66000826140ba565b6001810190506140d3565b5050565b601f8211156141365761410781613fd6565b61411084613feb565b8101602085101561411f578190505b61413361412b85613feb565b8301826140d2565b50505b505050565b600082821c905092915050565b60006141596000198460080261413b565b1980831691505092915050565b60006141728383614148565b9150826002028217905092915050565b61418b826132bf565b67ffffffffffffffff8111156141a4576141a3613523565b5b6141ae8254613be6565b6141b98282856140f5565b600060209050601f8311600181146141ec57600084156141da578287015190505b6141e48582614166565b86555061424c565b601f1984166141fa86613fd6565b60005b82811015614222578489015182556001820191506020850194506020810190506141fd565b8683101561423f578489015161423b601f891682614148565b8355505b6001600288020188555050505b505050505050565b7f4e487b7100000000000000000000000000000000000000000000000000000000600052601160045260246000fd5b600061428e82613371565b915061429983613371565b92508282026142a781613371565b915082820484148315176142be576142bd614254565b5b5092915050565b60006040820190506142da6000830185613827565b81810360208301526142ec8184613316565b90509392505050565b7f455243373231456e756d657261626c653a20676c6f62616c20696e646578206f60008201527f7574206f6620626f756e64730000000000000000000000000000000000000000602082015250565b6000614351602c836132ca565b915061435c826142f5565b604082019050919050565b6000602082019050818103600083015261438081614344565b9050919050565b7f4e487b7100000000000000000000000000000000000000000000000000000000600052603260045260246000fd5b7f416c7265616479206d617463682063726561746564207769746820746869732060008201527f6d61746863682069640000000000000000000000000000000000000000000000602082015250565b60006144126029836132ca565b915061441d826143b6565b604082019050919050565b6000602082019050818103600083015261444181614405565b9050919050565b7f73656e642066756c6c207374616b6520616d6f756e7400000000000000000000600082015250565b600061447e6016836132ca565b915061448982614448565b602082019050919050565b600060208201905081810360008301526144ad81614471565b9050919050565b7f4552433732313a20696e76616c696420746f6b656e2049440000000000000000600082015250565b60006144ea6018836132ca565b91506144f5826144b4565b602082019050919050565b60006020820190508181036000830152614519816144dd565b9050919050565b7f4552433732313a2061646472657373207a65726f206973206e6f74206120766160008201527f6c6964206f776e65720000000000000000000000000000000000000000000000602082015250565b600061457c6029836132ca565b915061458782614520565b604082019050919050565b600060208201905081810360008301526145ab8161456f565b9050919050565b7f4f776e61626c653a206e6577206f776e657220697320746865207a65726f206160008201527f6464726573730000000000000000000000000000000000000000000000000000602082015250565b600061460e6026836132ca565b9150614619826145b2565b604082019050919050565b6000602082019050818103600083015261463d81614601565b9050919050565b7f4552433732313a207472616e736665722066726f6d20696e636f72726563742060008201527f6f776e6572000000000000000000000000000000000000000000000000000000602082015250565b60006146a06025836132ca565b91506146ab82614644565b604082019050919050565b600060208201905081810360008301526146cf81614693565b9050919050565b7f4552433732313a207472616e7366657220746f20746865207a65726f2061646460008201527f7265737300000000000000000000000000000000000000000000000000000000602082015250565b60006147326024836132ca565b915061473d826146d6565b604082019050919050565b6000602082019050818103600083015261476181614725565b9050919050565b600081905092915050565b50565b6000614783600083614768565b915061478e82614773565b600082019050919050565b60006147a482614776565b9150819050919050565b7f73656e64696e67206d6f6e6579206661696c6564000000000000000000000000600082015250565b60006147e46014836132ca565b91506147ef826147ae565b602082019050919050565b60006020820190508181036000830152614813816147d7565b9050919050565b600061482582613371565b915061483083613371565b925082820190508082111561484857614847614254565b5b92915050565b7f4f776e61626c653a2063616c6c6572206973206e6f7420746865206f776e6572600082015250565b60006148846020836132ca565b915061488f8261484e565b602082019050919050565b600060208201905081810360008301526148b381614877565b9050919050565b7f4552433732313a20617070726f766520746f2063616c6c657200000000000000600082015250565b60006148f06019836132ca565b91506148fb826148ba565b602082019050919050565b6000602082019050818103600083015261491f816148e3565b9050919050565b7f4552433732313a207472616e7366657220746f206e6f6e20455243373231526560008201527f63656976657220696d706c656d656e7465720000000000000000000000000000602082015250565b60006149826032836132ca565b915061498d82614926565b604082019050919050565b600060208201905081810360008301526149b181614975565b9050919050565b60006149c48285613e6a565b91506149d08284613e6a565b91508190509392505050565b7f5265656e7472616e637947756172643a207265656e7472616e742063616c6c00600082015250565b6000614a12601f836132ca565b9150614a1d826149dc565b602082019050919050565b60006020820190508181036000830152614a4181614a05565b9050919050565b7f4552433732313a206d696e7420746f20746865207a65726f2061646472657373600082015250565b6000614a7e6020836132ca565b9150614a8982614a48565b602082019050919050565b60006020820190508181036000830152614aad81614a71565b9050919050565b7f4552433732313a20746f6b656e20616c7265616479206d696e74656400000000600082015250565b6000614aea601c836132ca565b9150614af582614ab4565b602082019050919050565b60006020820190508181036000830152614b1981614add565b9050919050565b7f45524337323155524953746f726167653a2055524920736574206f66206e6f6e60008201527f6578697374656e7420746f6b656e000000000000000000000000000000000000602082015250565b6000614b7c602e836132ca565b9150614b8782614b20565b604082019050919050565b60006020820190508181036000830152614bab81614b6f565b9050919050565b600081519050919050565b600082825260208201905092915050565b6000614bd982614bb2565b614be38185614bbd565b9350614bf38185602086016132db565b614bfc81613305565b840191505092915050565b6000608082019050614c1c6000830187613406565b614c296020830186613406565b614c36604083018561349c565b8181036060830152614c488184614bce565b905095945050505050565b600081519050614c6281613230565b92915050565b600060208284031215614c7e57614c7d6131fa565b5b6000614c8c84828501614c53565b91505092915050565b7f455243373231456e756d657261626c653a20636f6e736563757469766520747260008201527f616e7366657273206e6f7420737570706f727465640000000000000000000000602082015250565b6000614cf16035836132ca565b9150614cfc82614c95565b604082019050919050565b60006020820190508181036000830152614d2081614ce4565b9050919050565b7f4e487b7100000000000000000000000000000000000000000000000000000000600052601260045260246000fd5b6000614d6182613371565b9150614d6c83613371565b9250828203905081811115614d8457614d83614254565b5b92915050565b7f4e487b7100000000000000000000000000000000000000000000000000000000600052603160045260246000fdfea26469706673582212205b96710516854714a26854b5581394b745eac4608eac7df4d7900ab0cf45781164736f6c63430008120033",
    "linkReferences": {},
    "deployedLinkReferences": {}
}